{
  "contractName": "lottery",
  "abi": [
    {
      "constant": false,
      "inputs": [],
      "name": "create_ticket",
      "outputs": [
        {
          "name": "",
          "type": "uint256"
        }
      ],
      "payable": false,
      "stateMutability": "nonpayable",
      "type": "function"
    },
    {
      "constant": true,
      "inputs": [],
      "name": "show_ticket",
      "outputs": [
        {
          "name": "",
          "type": "uint256[]"
        },
        {
          "name": "",
          "type": "bytes32[]"
        },
        {
          "name": "",
          "type": "uint256[]"
        },
        {
          "name": "",
          "type": "bytes32[]"
        },
        {
          "name": "",
          "type": "bytes32[]"
        },
        {
          "name": "",
          "type": "bytes32[]"
        }
      ],
      "payable": false,
      "stateMutability": "view",
      "type": "function"
    },
    {
      "constant": true,
      "inputs": [
        {
          "name": "",
          "type": "uint256"
        }
      ],
      "name": "tickets",
      "outputs": [
        {
          "name": "number",
          "type": "uint256"
        },
        {
          "name": "date",
          "type": "bytes32"
        },
        {
          "name": "amount",
          "type": "uint256"
        },
        {
          "name": "duedate",
          "type": "bytes32"
        },
        {
          "name": "ticket_owner",
          "type": "bytes32"
        },
        {
          "name": "ticket_status",
          "type": "bytes32"
        }
      ],
      "payable": false,
      "stateMutability": "view",
      "type": "function"
    },
    {
      "constant": false,
      "inputs": [],
      "name": "result",
      "outputs": [
        {
          "name": "",
          "type": "bytes32"
        }
      ],
      "payable": false,
      "stateMutability": "nonpayable",
      "type": "function"
    },
    {
      "constant": false,
      "inputs": [
        {
          "name": "num",
          "type": "uint256"
        },
        {
          "name": "newid",
          "type": "bytes32"
        }
      ],
      "name": "ticket_sale",
      "outputs": [
        {
          "name": "",
          "type": "uint256"
        }
      ],
      "payable": false,
      "stateMutability": "nonpayable",
      "type": "function"
    }
  ],
  "bytecode": "0x6060604052341561000f57600080fd5b610a4f8061001e6000396000f30060606040526004361061006c576000357c0100000000000000000000000000000000000000000000000000000000900463ffffffff1680627c0e581461007157806306dc49fb1461009a57806350b447121461026c57806365372147146102e65780636fc6309914610317575b600080fd5b341561007c57600080fd5b61008461035b565b6040518082815260200191505060405180910390f35b34156100a557600080fd5b6100ad6104f2565b6040518080602001806020018060200180602001806020018060200187810387528d818151815260200191508051906020019060200280838360005b838110156101045780820151818401526020810190506100e9565b5050505090500187810386528c818151815260200191508051906020019060200280838360005b8381101561014657808201518184015260208101905061012b565b5050505090500187810385528b818151815260200191508051906020019060200280838360005b8381101561018857808201518184015260208101905061016d565b5050505090500187810384528a818151815260200191508051906020019060200280838360005b838110156101ca5780820151818401526020810190506101af565b50505050905001878103835289818151815260200191508051906020019060200280838360005b8381101561020c5780820151818401526020810190506101f1565b50505050905001878103825288818151815260200191508051906020019060200280838360005b8381101561024e578082015181840152602081019050610233565b505050509050019c5050505050505050505050505060405180910390f35b341561027757600080fd5b61028d60048080359060200190919050506107de565b604051808781526020018660001916600019168152602001858152602001846000191660001916815260200183600019166000191681526020018260001916600019168152602001965050505050505060405180910390f35b34156102f157600080fd5b6102f9610829565b60405180826000191660001916815260200191505060405180910390f35b341561032257600080fd5b610345600480803590602001909190803560001916906020019091905050610873565b6040518082815260200191505060405180910390f35b600080610366610937565b600091505b60058210156104e957818160000181815250507f302d302d3030303000000000000000000000000000000000000000000000000081602001906000191690816000191681525050620186a08160400181815250507f30312d30312d3230313800000000000000000000000000000000000000000000816060019060001916908160001916815250507f3030303031000000000000000000000000000000000000000000000000000000816080019060001916908160001916815250507f6e6f7420736f6c640000000000000000000000000000000000000000000000008160a0019060001916908160001916815250506001805480600101828161046f919061097a565b91600052602060002090600602016000839091909150600082015181600001556020820151816001019060001916905560408201518160020155606082015181600301906000191690556080820151816004019060001916905560a08201518160050190600019169055505050818060010192505061036b565b60019250505090565b6104fa6109ac565b6105026109c0565b61050a6109ac565b6105126109c0565b61051a6109c0565b6105226109c0565b600061052c6109ac565b6105346109c0565b61053c6109ac565b6105446109c0565b61054c6109c0565b6105546109c0565b600061055e610937565b6001805490509850886040518059106105745750595b90808252806020026020018201604052509750886040518059106105955750595b90808252806020026020018201604052509650886040518059106105b65750595b90808252806020026020018201604052509550886040518059106105d75750595b90808252806020026020018201604052509450886040518059106105f85750595b90808252806020026020018201604052509350886040518059106106195750595b90808252806020026020018201604052509250600091505b888210156107bb5760018281548110151561064857fe5b906000526020600020906006020160c06040519081016040529081600082015481526020016001820154600019166000191681526020016002820154815260200160038201546000191660001916815260200160048201546000191660001916815260200160058201546000191660001916815250509050806000015188838151811015156106d357fe5b9060200190602002018181525050806020015187838151811015156106f457fe5b9060200190602002019060001916908160001916815250508060400151868381518110151561071f57fe5b90602001906020020181815250508060600151858381518110151561074057fe5b9060200190602002019060001916908160001916815250508060800151848381518110151561076b57fe5b9060200190602002019060001916908160001916815250508060a00151838381518110151561079657fe5b9060200190602002019060001916908160001916815250508180600101925050610631565b8787878787879e509e509e509e509e509e50505050505050505050909192939495565b6001818154811015156107ed57fe5b90600052602060002090600602016000915090508060000154908060010154908060020154908060030154908060040154908060050154905086565b60008060006001600a60014303406001900481151561084457fe5b0601915060018281548110151561085757fe5b9060005260206000209060060201600401549050809250505090565b600080600090505b600581101561092c578360018281548110151561089457fe5b906000526020600020906006020160000154141561091f57826001828154811015156108bc57fe5b906000526020600020906006020160040181600019169055507f736f6c640000000000000000000000000000000000000000000000000000000060018281548110151561090557fe5b906000526020600020906006020160050181600019169055505b808060010191505061087b565b600191505092915050565b60c0604051908101604052806000815260200160008019168152602001600081526020016000801916815260200160008019168152602001600080191681525090565b8154818355818115116109a7576006028160060283600052602060002091820191016109a691906109d4565b5b505050565b602060405190810160405280600081525090565b602060405190810160405280600081525090565b610a2091905b80821115610a1c5760008082016000905560018201600090556002820160009055600382016000905560048201600090556005820160009055506006016109da565b5090565b905600a165627a7a7230582045808b6f3f0a11b1e552699afab80c9fce671a343bad95a31e196e94bdc2d74a0029",
  "source": "pragma solidity ^0.4.2;\ncontract lottery\n{\n  address ticketowner;\n  ticket[] public tickets;\n  struct ticket\n  {\n   uint number;\n   bytes32 date;\n   uint  amount;\n   bytes32 duedate;\n   bytes32 ticket_owner;\n   bytes32 ticket_status;\n  }\n  function create_ticket() public returns(uint)\n  {\n    for (uint i=0;i<5;i++)\n    {\n    ticket memory myticket;\n    myticket.number=i;\n    myticket.date= '0-0-0000';\n    myticket.amount=100000;\n    myticket.duedate='01-01-2018';\n    myticket.ticket_owner ='00001';\n    myticket.ticket_status='not sold';\n    tickets.push(myticket);\n    }\n    return 1;\n  }\n  function show_ticket() public constant returns(uint[],bytes32[],uint[],bytes32[],bytes32[],bytes32[])\n  {\n    uint length = tickets.length;\n    uint[] memory numbers = new uint[](length);\n    bytes32[] memory dates = new bytes32[](length);\n    uint[] memory amounts = new uint[](length);\n    bytes32[] memory duedates = new bytes32[](length);\n    bytes32[] memory owners = new bytes32[](length);\n    bytes32[] memory stats = new bytes32[](length);\n      for(uint i = 0; i < length; i++)\n       {\n        ticket memory newticket;\n        newticket = tickets[i];\n        numbers[i] = newticket.number;\n        dates[i] = newticket.date;\n        amounts[i] = newticket.amount;\n        duedates[i] = newticket.duedate;\n        owners[i] = newticket.ticket_owner;\n        stats[i] = newticket.ticket_status;\n       }\n      return(numbers,dates,amounts,duedates,owners,stats);\n  }\n  function ticket_sale(uint num,bytes32 newid) public returns(uint)\n    {\n    for (uint i=0;i<5;i++)\n     {\n      if( tickets[i].number==num)\n      {\n        tickets[i].ticket_owner =newid;\n        tickets[i].ticket_status='sold';\n      }\n    }\n    return 1;\n   }\n   function  result() returns (bytes32)\n   {\n     uint winner;\n     /*winner = Math.floor(Math.random() * 10) + 1;*/\n     winner=uint(block.blockhash(block.number-1))%10 + 1;\n     bytes32 win=tickets[winner].ticket_owner;\n     return win;\n   }\n\n  }\n",
  "sourcePath": "/home/cybrosys/Geethu/blockchain/lottery/contracts/lottery.sol",
  "compiler": {
    "name": "solc",
    "version": "0.4.18+commit.9cf6e910.Emscripten.clang"
  },
  "schemaVersion": "1.0.1",
  "updatedAt": "2018-01-04T07:15:44.973Z"
}